:100000000C94D2000C94E6000C94E6000C94E600EC
:100010000C94E6000C94E6000C94E6000C94E600C8
:100020000C94E6000C94E6000C94E6000C94E600B8
:100030000C94E6000C94E6000C94E6000C94E600A8
:100040000C94E6000C94E6000C94E6000C94E60098
:100050000C94E6000C94E6000C94E6000C94070166
:100060000C94E6000C94E6000C94E6000C94E60078
:100070000C94E6000C94E6000C94E6000C94E60068
:100080000C94E6000C94E6000C94E6000C94E60058
:100090000C94E6000C94E6000C94E6000C94E60048
:1000A0000C94E6000C94E6000C94E6000C94E60038
:1000B0000C94E6000C94E6000C94E6000C94E60028
:1000C0000C94E6000C94E6000C94E6000C94E60018
:1000D0000C94E6000C94E6000C94E6000C94E60008
:1000E0000C94E60000002200250028002B002E00C2
:1000F0003100340002010000050108010B0100007D
:100100002100240027002A002D00300033000101C7
:100110000000040107010A01050505050705080897
:100120000808020202020A0A080804040404010181
:100130000101010101010303030303030303040796
:1001400007070C0C0C0C0C0C0C0C0202020206062D
:100150000606060606060B0B0B0B0B0B0B0B010220
:1001600010202008081020401020408002010201C9
:100170000804020101020408102040808040201081
:1001800008040201800402018040201008040201DA
:100190000804020101020408102040800102040842
:1001A0001020408011241FBECFEFD1E2DEBFCDBFB3
:1001B00000E00CBF22E0A0E0B2E001C01D92A93037
:1001C000B207E1F70E9451010C94FB010C9400006E
:1001D00090E0FC01E25AFE4F2491885E9E4FFC01A4
:1001E0008491882399F090E0880F991FFC01E250D8
:1001F000FF4FA591B491FC01EC51FF4F8591949173
:100200008FB7F894EC91E22BEC938FBF08951F9277
:100210000F920FB60F9211242F933F938F939F93BA
:10022000AF93BF938091050290910602A0910702BF
:10023000B09108023091040223E0230F2D3758F5C6
:100240000196A11DB11D2093040280930502909395
:100250000602A0930702B0930802809100029091D9
:100260000102A0910202B09103020196A11DB11DED
:100270008093000290930102A0930202B0930302C4
:10028000BF91AF919F918F913F912F910F900FBE92
:100290000F901F90189526E8230F0296A11DB11DFF
:1002A000D2CF789484B5826084BD84B5816084BDEA
:1002B00085B5826085BD85B5816085BD80916E0004
:1002C000816080936E001092810080918100826035
:1002D0008093810080918100816080938100809172
:1002E00080008160809380008091B1008460809361
:1002F000B1008091B00081608093B0008091910046
:100300008260809391008091910081608093910040
:10031000809190008160809390008091A100826024
:100320008093A1008091A10081608093A1008091C1
:10033000A00081608093A000809121018260809361
:100340002101809121018160809321018091200110
:1003500081608093200180917A00846080937A008C
:1003600080917A00826080937A0080917A00816027
:1003700080937A0080917A00806880937A0010924E
:10038000C10089E00E94E80082E00E94E80086E067
:100390000E94E80083EA8093B00083E68093B30074
:1003A0008AE08093B10086E48093B40032EA30930F
:1003B000900043E650E050939700409396002AE166
:1003C0002093910082E390E090939B0080939A00A9
:1003D0003093A0005093A7004093A6002093A10063
:1003E0009093A9008093A800C0E0D0E02097F1F39B
:0A03F0000E940000FBCFF894FFCF3D
:00000001FF
